{
  "_format": "hh-sol-artifact-1",
  "contractName": "ReceiveEther",
  "sourceName": "contracts/SendEther.sol",
  "abi": [
    {
      "stateMutability": "payable",
      "type": "fallback"
    },
    {
      "inputs": [],
      "name": "getBalance",
      "outputs": [
        {
          "internalType": "uint256",
          "name": "",
          "type": "uint256"
        }
      ],
      "stateMutability": "view",
      "type": "function"
    },
    {
      "stateMutability": "payable",
      "type": "receive"
    }
  ],
  "bytecode": "0x608060405234801561001057600080fd5b5060bb8061001f6000396000f3fe608060405260043610601f5760003560e01c806312065fe0146027576025565b36602557005b005b348015603257600080fd5b506039604d565b604051604491906062565b60405180910390f35b600047905090565b605c81607b565b82525050565b6000602082019050607560008301846055565b92915050565b600081905091905056fea26469706673582212207df387c306f61a1e48b887b4b026382aeb3f65128acbea5eefb1828d2c653fcf64736f6c63430008040033",
  "linkReferences": {},
  "deployedLinkReferences": {}
}