{
  "_format": "hh-sol-artifact-1",
  "contractName": "SendEther",
  "sourceName": "contracts/SendEther.sol",
  "abi": [
    {
      "inputs": [
        {
          "internalType": "address payable",
          "name": "_to",
          "type": "address"
        }
      ],
      "name": "sendViaCall",
      "outputs": [],
      "stateMutability": "payable",
      "type": "function"
    },
    {
      "inputs": [
        {
          "internalType": "address payable",
          "name": "_to",
          "type": "address"
        }
      ],
      "name": "sendViaSend",
      "outputs": [],
      "stateMutability": "payable",
      "type": "function"
    },
    {
      "inputs": [
        {
          "internalType": "address payable",
          "name": "_to",
          "type": "address"
        }
      ],
      "name": "sendViaTransfer",
      "outputs": [],
      "stateMutability": "payable",
      "type": "function"
    }
  ],
  "bytecode": "0x608060405234801561001057600080fd5b50610291806100206000396000f3fe6080604052600436106100345760003560e01c8063636e082b1461003957806374be480614610055578063830c29ae14610071575b600080fd5b610053600480360381019061004e919061016c565b61008d565b005b61006f600480360381019061006a919061016c565b6100d7565b005b61008b6004803603810190610086919061016c565b610154565b005b8073ffffffffffffffffffffffffffffffffffffffff166108fc349081150290604051600060405180830381858888f193505050501580156100d3573d6000803e3d6000fd5b5050565b60008173ffffffffffffffffffffffffffffffffffffffff166108fc349081150290604051600060405180830381858888f19350505050905080610150576040517f08c379a0000000000000000000000000000000000000000000000000000000008152600401610147906101b8565b60405180910390fd5b5050565b50565b60008135905061016681610244565b92915050565b60006020828403121561017e57600080fd5b600061018c84828501610157565b91505092915050565b60006101a26014836101d8565b91506101ad8261021b565b602082019050919050565b600060208201905081810360008301526101d181610195565b9050919050565b600082825260208201905092915050565b60006101f4826101fb565b9050919050565b600073ffffffffffffffffffffffffffffffffffffffff82169050919050565b7f4661696c656420746f2073656e64204574686572000000000000000000000000600082015250565b61024d816101e9565b811461025857600080fd5b5056fea2646970667358221220567e16fadc8a8a55c1caedc135d5ced43f474d95a149b0b8d5a777aee18ee59964736f6c63430008040033",
  "linkReferences": {},
  "deployedLinkReferences": {}
}